:100000000C942E040C9456040C9456040C94D207B1
:100010000C94AE070C9456040C9456040C9456049D
:100020000C9456040C9456040C94AB0A0C944E0891
:100030000C9456040C9456040C9456040C945604D8
:100040000C9456040C9456040C9456040C945604C8
:100050000C9456040C9456040C9456040C942412DC
:100060000C9456040C9456040C9456040C945604A8
:100070000C9456040C9456040C9456040C94560498
:100080000C9456040C9456040C9456040C94560488
:100090000C946E120C9456040C9456040C94560452
:1000A0000C9456040C9456040C945604511EDD1EF8
:1000B00039207A1F1D21EA2244228B238224B52471
:1000C000E82468252325BB2C8F29642AF52D652B70
:1000D000642D912AAC2BF52DF52DF52DF52DF52D53
:1000E000F52D9729B82CF52D85297F29F52DF82890
:1000F0007A29942BF52DB82C832AC32BDB2BF32BD9
:100100000B2C232C302C5D2CF52DF52DF52DF52DFC
:10011000F52DF52DF52DF52DF52DF52DA92CF52D1C
:10012000F52DF52DF52DF52DF52DF52D462CB32DB1
:10013000BB2D832D8B2DF52D932D7B2DF52DAB2DEB
:10014000C32DF52DF52DA32DF52DF52DF52DF52D23
:10015000F52D9B2D1D0F200F130F170F410F410F72
:10016000410F240F280F2C0F320F360F410F3C0F79
:100170003B11401145114F119911991199115911C4
:1001800063116D117711841199118C1105A84CCD53
:10019000B2D44EB93836A9020C50B9918688083CC1
:1001A000A6AAAA2ABE000000803F000000000000AE
:1001B00000002A2B280000000000000000000000C2
:1001C000000000000000000000002C9EB4A0A1A2CE
:1001D000A434A6A7A5AE362D3738271E1F2021220E
:1001E00023242526B333B62EB7B89F848586878807
:1001F000898A8B8C8D8E8F909192939495969798F7
:10020000999A9B9C9D2F3130A3AD350405060708B4
:10021000090A0B0C0D0E0F101112131415161718D6
:10022000191A1B1C1DAFB1B0B500080B0002020269
:100230000100090400000102020000052400100171
:100240000524010101042402060524060001070516
:10025000810310004009040100020A0000000705A4
:10026000020240000007058302400000090402006A
:10027000020300000009210101000122E104070539
:10028000840340000107050503400001050109043E
:10029000A10185040901A100093017000000002711
:1002A000FFFF0000350047FFFF000075109501813A
:1002B00002093116000027FFFF0000350047FFFF4D
:1002C0000000751095018102093216000027FF0F0A
:1002D0000000350047FF0F0000750C9501810209F1
:1002E0003316000027FF0F0000350047FF0F000006
:1002F000750C95018102093416000027FF0F0000DC
:10030000350047FF0F0000750C9501810209391572
:100310000125083500463B0165145500750495011B
:1003200081020509150025015500650019012918EC
:1003300075019518810285F10901150026FF0095C8
:100340003F7508918285F20901953F75088182C049
:10035000050F0992A1028502099F09A009A409A518
:1003600009A6150025013500450175019505810295
:100370009503810309941500250135004501750198
:1003800095018102092215012528350145287507A7
:1003900095018102C00921A10285010922150125CB
:1003A00028350145287508950191020925A1020902
:1003B000260927093009310932093309340940096E
:1003C0004109420943250B15013501450B75089577
:1003D000019100C009500954150027FFFF000035A6
:1003E0000047FFFF000066011055FD751095029152
:1003F0000255006600000952150026FF7F350046B1
:10040000FF7F7510950191020953150125083501EB
:1004100045087508950191020955A10205010930A9
:10042000093115002501750195029102C0050F09DA
:100430005695019102950591030957A1020B010000
:100440000A000B02000A0066140055FE150026FF84
:100450007F3500479F8C0000751095019102550073
:10046000660000C0050F09A766011055FD1500279D
:10047000FFFF0000350047FFFF0000751095019158
:10048000026600005500C0050F095AA10285020945
:100490002215012528350145287508950191020985
:1004A0005B095D150026FF00350046FF7F75089546
:1004B000029102095C095E66011055FD26FF7F4628
:1004C000FF7F7510950291026600005500C0095F1C
:1004D000A102850309221501252835014528750843
:1004E0009501910209231500250135004501750488
:1004F000950191020958A1020B01000A000B0200AC
:100500000A00750295029102C0096016008026FF5C
:100510007F36008046FF7F75109501910209613694
:10052000008046FF7F95019102150026FF7F350070
:1005300046FF7F0963751095019102096515002634
:10054000FF0046FF7F750895019102C0096EA10268
:1005500085040922150125283501452875089501CE
:1005600091020970150026FF7F350046FF7F751048
:1005700095019102096F16008026FF7F36008046A4
:10058000FF7F950191020971150026FF0035004695
:1005900067016614005500750895019102097227DC
:1005A000FFFF000047FFFF000066011055FD7510BA
:1005B000950191026600005500C00973A1028505EE
:1005C0000922150125283501452875089501910254
:1005D000097016018026FF7F36018046FF7F751067
:1005E00095019102C00974A1028506092215012511
:1005F0002835014528750895019102097509761578
:1006000081257F36018046FF7F750895029102C0E3
:10061000050F0977A102850A092215012528350150
:1006200045287508950191020978A1020979097A8E
:10063000097B15012503750895019100C0097C15FA
:100640000026FF00350046FF009102C00990A1027C
:10065000850B0922150125283501452875089501C6
:100660009102C00996A102850C0997099809990978
:100670009A099B099C15012506750895019100C0F2
:10068000097DA102850D097E150026FF0035004673
:100690001027750895019102C009ABA102850509D3
:1006A00025A1020926092709300931093209330930
:1006B0003409400941094209431501250B3501451B
:1006C0000B75089501B100C00501093B150026FF17
:1006D00001350046FF01750A9501B1027506B101A9
:1006E000C0050F0989A102850609222528150135B3
:1006F00001452875089501B102098BA102098C09F1
:100700008D098E250315013501450375089501B145
:1007100000C009AC150027FFFF0000350047FFFFB0
:10072000000075109501B100C0097FA1028507097D
:100730008075109501150027FFFF0000350047FF69
:10074000FF0000B102098326FF0046FF00750895EF
:1007500001B10209A909AA75019502150025013503
:10076000004501B10275069501B103C0C0180346EA
:1007700000490020004F00700053006F00750072A8
:10078000006300650004030904220344005300577A
:1007900000200057006800650065006C0020002004
:1007A0000020002000200020002000120100020094
:1007B00000004044444144000101020001120100D4
:1007C00002020000404444414400010102000100D3
:1007D000C18081C1C0070605040100080A0B0C0D89
:1007E0000900000000240027002A002D003000002E
:1007F000000000250028002B002E00310004040416
:1008000004040304050202020204030202020206B7
:100810000606060606040402020204040408020195
:100820001040804010204080408008020401804039
:100830002010020110801020404020000000020023
:10084000080E0000030401000B000000000000007F
:10085000000000000000000000000F2E11241FBE49
:10086000CFEFDAE0DEBFCDBF11E0A0E0B1E0E8E21B
:10087000F4E602C005900D92AC3BB107D9F725E034
:10088000ACEBB1E001C01D92A834B207E1F714E06F
:10089000CEE2D4E004C02197FE010E940032CD32A6
:1008A000D107C9F70E94F5170C9412320C9400007E
:1008B0008C30F8F4282F30E09DE1899FF00111245D
:1008C000ED5FFD4F90819923A1F090819D7F9083F2
:1008D000F901E955FC4F958191110BC0E091BD01E3
:1008E000F091BE010084F185E02D09951092B703C7
:1008F00008950895FC01CB012091E80022FFFCCF70
:10090000282F215028F03091F10030833196F9CF13
:1009100024E620939B032BEF2093E80008950F9388
:100920001F93CF93DF93DB01A40FB51FFB016EEF85
:10093000EA17FB0791F187FF02C0249101C02081D3
:1009400000919F031091A003C0919D03D0919E033D
:100950000C171D07B4F49091E8009570E1F39091A5
:10096000E80092FD1CC02093F10020919F0330917C
:10097000A0032F5F3F4F2F733327232B11F4609376
:10098000E80020919F033091A0032F5F3F4F3093E9
:10099000A00320939F033196CBCFCA0102C08FEFF3
:1009A0009FEFDF91CF911F910F910895CF93DF9328
:1009B00000D000D01F92CDB7DEB7FC0181819081BD
:1009C000913A29F5813009F0BCC08281863051F41A
:1009D00045E050E062EA73E080E40E948F041092E8
:1009E000A203AFC0873009F0ACC089838FEF9FEFBF
:1009F0009B838A838BE08C8383E08D8345E050E08A
:100A0000BE016F5F7F4F80E40E948F049AC09132D5
:100A100009F097C0893009F094C08281853009F0CF
:100A200090C064E070E0CE0101960E947A0486E0F6
:100A30008093A203809111018B3021F1A0911101CB
:100A400081E08A0F809311019DE1E09111019E9F49
:100A5000F0011124ED5FFD4F8081882351F08091DA
:100A600011018B3030F4809111018F5F809311015F
:100A7000ECCF8DE1A89FF0011124ED5FFD4F81E0E7
:100A8000808301C0A0E0A093A303A11104C082E071
:100A90008093A40350C010922A0581E08093A403A0
:100AA0008A819DE1A99FD0011124AD5FBD4F1196B0
:100AB0008C9311978FEF9FEF1F969C938E931E97A9
:100AC00053961C921E92529751961C921E925097CA
:100AD00012968C93129713968C93139755961C929B
:100AE0001E9254971D961C921E921C9715961C924E
:100AF00015978FEF9FE719969C938E9318975796AB
:100B00001C921E9256975B961C921E925A975C9668
:100B10001C925C9788EE93E01B969C938E931A9799
:100B2000E091BD01F091BE010684F785E02DBD0185
:100B3000CE01019609958FEF9FEF9093A6038093C6
:100B4000A50381E00F900F900F900F900F90DF9111
:100B5000CF91089542E450E06AE272E080E80E949A
:100B60008F0440E250E06CE672E080E80E948F045F
:100B700083E090E00895EF92FF921F93CF93DF936D
:100B8000EC01162FE881F9810480F581E02D0995AB
:100B90007C01E881F9810680F781E02D612FCE018B
:100BA0000995C7019927DF91CF911F91FF90EF9091
:100BB0000895FC0191818081813A29F49D7F81E033
:100BC000913091F414C0813279F49A3049F09B301D
:100BD00019F0993049F40AC082818093100106C04F
:100BE000828180930F0102C080E0089581E0089522
:100BF0008C30F0F49DE1899FF0011124ED5FFD4FF1
:100C000080818823A9F08081826080838091B703EE
:100C100081110EC00E9418126093CD017093CE0115
:100C20008093CF019093D00181E08093B703089522
:100C30000895CF92DF92EF92FF926091C901709177
:100C4000CA01072E000C880B990B0E943A306B01E9
:100C50007C016091600370916103809162039091C7
:100C600063030E943A309B01AC01C701B6010E94A8
:100C7000902FFF90EF90DF90CF900895CF92DF926A
:100C8000EF92FF920F931F938B019C014091C5013E
:100C90005091C6016A01E12CF12C66277727CB0120
:100CA0006C197D098E099F09061717072807390750
:100CB0004CF0C901B801C016D106E206F30614F4DF
:100CC000C701B6011F910F91FF90EF90DF90CF9079
:100CD00008954F925F926F927F928F929F92AF9200
:100CE000BF92CF92DF92EF92FF92CF93DF9300D02B
:100CF00000D0CDB7DEB74B015C0157FF02C04D5F9E
:100D00005F4F6A01D594C794D594C7940E94190681
:100D100069837A838B839C839B01AC01C501B401F9
:100D20000E94EF3020E030E040E251E40E94EF30DA
:100D30002B013C0120E030E040E85FE30E94EA3014
:100D40000D2C000CEE08FF0818161CF4C701B601A4
:100D500028C020E030E040E85FEBC301B2010E9410
:100D60008B2F87FF06C0C701B6010E943E06CB014C
:100D70001EC0C701B6010E943A309B01AC01C501FB
:100D8000B4010E94EF3029813A814B815C810E943D
:100D9000EF3020E030E040E251E40E94EF300E946A
:100DA00002300E943E0688279927861B970B0F90DA
:100DB0000F900F900F90DF91CF91FF90EF90DF9009
:100DC000CF90BF90AF909F908F907F906F905F90EB
:100DD0004F9008958F929F92AF92BF92CF92DF92E1
:100DE000EF92FF924B015C01BA01550F880B990BF2
:100DF0000E943A306B017C0120E030E0A901C5017E
:100E0000B4010E94EA30A501940118160CF0505864
:100E1000C701B6010E94EF306B017C010E941906E8
:100E20009B01AC01C701B6010E94EF3020E030E029
:100E300040E851E40E94EF3020E030E040E251E42D
:100E40000E94EF3020E030E040E05DE30E94EF30B0
:100E50000E9402300E943E066B017C0120E030E0DF
:100E6000A901C501B4010E94EA3018162CF48827A4
:100E700099278C199D090DC020E030E0A901C5011A
:100E8000B4010E948B2F87FF02C0C60102C080E020
:100E900090E0FF90EF90DF90CF90BF90AF909F9049
:100EA0008F900895CF92DF92EF92FF92CF93DF93CE
:100EB0006B017C01EA0120E030E0A9010E94EA30E8
:100EC000181694F020E030E0A901C701B6010E9495
:100ED0008B2F87FF3AC020E030E0A901C701B6019F
:100EE0000E941F2F6B017C01BE01DD0F880B990B47
:100EF0000E943A309B01AC01C701B6010E94EF305D
:100F00006B017C010E9419069B01AC01C701B6016F
:100F10000E94EF3020E030E040E851E40E94EF30E2
:100F200020E030E040E251E40E94EF3020E030E089
:100F300040E05BE30E94EF300E9402300E943E06D8
:100F400088279927861B970B02C080E090E0DF91ED
:100F5000CF91FF90EF90DF90CF9008951F920F9266
:100F60000FB60F9211242F933F934F935F936F937C
:100F70007F938F939F93AF93BF93EF93FF930E94C1
:100F80007A16FF91EF91BF91AF919F918F917F91D1
:100F90006F915F914F913F912F910F900FBE0F90E6
:100FA0001F9018951F920F920FB60F9211242F9336
:100FB0003F934F935F936F937F938F939F93AF93E1
:100FC000BF93EF93FF930E947A16FF91EF91BF9129
:100FD000AF919F918F917F916F915F914F913F91D1
:100FE0002F910F900FBE0F901F901895CF92DF9208
:100FF000EF92FF920F931F93CF93DF931F92CDB782
:10100000DEB7F82EE42E8B01C82ED92E8C2D8F1929
:101010008E1588F4F80161918F01C60169830E94E1
:10102000A52E6981681719F0C6010E94AD2EFFEF49
:10103000CF1ADF0AEBCF0F90DF91CF911F910F9165
:10104000FF90EF90DF90CF900895CF92DF92EF92D4
:10105000FF920F931F93CF93DF931F92CDB7DEB70D
:101060008B016B017C01E61AF70A9C2D901B9417EB
:1010700058F4C7018C0D9D1D49830E94A52EF601D1
:1010800081936F014981F1CF0F90DF91CF911F9133
:101090000F91FF90EF90DF90CF9008951F920F92E5
:1010A0000FB60F921124EF92FF921F932F933F934D
:1010B0004F935F936F937F938F939F93AF93BF9360
:1010C000EF93FF93CF93DF93CDB7DEB76197DEBF8A
:1010D000CDBF1092E9008091E80083FF59C1FE0165
:1010E0003A96CF0128E02E0F2E1729F03091F1000B
:1010F00030833196F9CF24E620939B0322EF20938F
:10110000E8002A8527FF05C03091E80030FFFCCFBA
:1011100003C03EEF3093E800322F307609F0C5C0AF
:101120008B85811105C01092F1001092F10029C148
:10113000982F9D7F913009F424C1853049F4809126
:10114000E80080FFFCCF8C8580688093E30019C1A4
:10115000863009F07CC01D85E888F9881092E90086
:101160001092A00310929F03123091F510929E03EB
:1011700010929D030E94AA0599E0BE016F5F7F4F08
:10118000FB01292F11922A95E9F799831A8391E09F
:101190009E8390E898879AEF998720919F033091DA
:1011A000A003275F3F4F3C832B838D831092E90080
:1011B0001092A00310929F03F0929E03E0929D0371
:1011C00049E050E080E00E948F040E94AA05D9C047
:1011D000F0929E03E0929D03123259F441EE54E0E6
:1011E0006CE872E080E80E948F04892B09F0C9C086
:1011F000CCC0113069F488899989089711F410934B
:101200009C0380919C03811111C06BEA77E016C0AA
:10121000133009F0BAC08C85882359F0823061F010
:10122000813009F0B2C06DE677E008C06DEB77E081
:1012300005C065E877E002C069E877E061157105EF
:1012400009F4A3C0FB01449150E080E849C0873015
:1012500009F49BC0883021F481E08093F10091C0B3
:10126000893009F08EC0237009F08FC080E090E0D3
:1012700031E026E341E0480F4093E9003093EB0072
:101280000196FC01E153F84FE491E093EC002093C8
:10129000ED008530910571F78EE78093EA0010929A
:1012A000EA008C858093BC016CC028893989109232
:1012B000E9001092A00310929F0330939E032093A5
:1012C0009D032E85211154C08B859A85913A59F43E
:1012D000813209F05AC047E050E062E171E080E0FD
:1012E0000E948F044EC0913209F04FC0803239F411
:1012F00067E070E082E191E00E947A0442C08232AD
:1013000009F043C08C85809319018091120190915E
:101310001301A0911401B0911501803B9440A105E7
:10132000B10579F58091190180FD11C087E797E734
:1013300090930108809300089BE088E10FB6F89431
:10134000A895809360000FBE909360001AC00FB6FE
:10135000F894A89580916000886180936000109255
:1013600060000FBEA895109201081092000809C0F5
:10137000223059F4E0912B05F0912C050995882332
:1013800021F08EEF8093E80003C081E28093EB00B0
:1013900061960FB6F894DEBF0FBECDBFDF91CF913F
:1013A000FF91EF91BF91AF919F918F917F916F913D
:1013B0005F914F913F912F911F91FF90EF900F9070
:1013C0000FBE0F901F9018958F929F92AF92BF9271
:1013D000CF92DF92EF92FF920F931F93CF93DF9301
:1013E00000D01F92CDB7DEB7382F8B018091BC01A2
:1013F000882389F04A018AEFF82E832F8770E82E20
:1014000090E4C92E832F8072B82E2AE3D22E832F28
:101410008074A82E21C08FEF9FEF5FC08FB7F89424
:10142000E092E9009091E80095FF1AC09091F200D7
:101430002C2D291B8FBF211115C0FA94FF2059F3C1
:1014400061E070E080E090E039834A835B830E9432
:10145000F21139814A815B8181149104F9F634C01B
:1014600020E0E8CF822F90E0881699060CF4282D12
:10147000822F90E0881A990A6FB7F894E092E900F9
:10148000BB2029F02150A8F01092F100FBCFF80109
:1014900037FF07C0215058F074917093F1003196D6
:1014A000F9CF215020F071917093F100FACF080F1D
:1014B000191F8091E80085FF0DC08114910411F47B
:1014C000A11008C06FBFC8CF5D9884E68093A103C8
:1014D000CA0103C0D092E800F5CF0F900F900F9093
:1014E000DF91CF911F910F91FF90EF90DF90CF9000
:1014F000BF90AF909F908F9008959091BC019923D9
:1015000011F057FF03C08FEF9FEF08952FB7F894A6
:1015100087708093E9008091F20090E0841795072E
:101520000CF4AC01842FFB0194E6815030F09093D1
:101530009B033091F1003193F8CF4115510521F013
:101540008091F200882319F02FBFCA0108958BE61D
:101550008093E800F9CF1F920F920FB60F921124DB
:101560002F933F934F935F936F937F938F939F93AB
:10157000AF93BF93EF93FF93CF93DF93CDB7DEB7D6
:10158000C054D109DEBFCDBF8091E1001092E100CF
:1015900083FF0FC01092E90091E09093EB0010924E
:1015A000EC0092E39093ED001092BC0198E09093D0
:1015B000F00082FF46C083E08093E9008091F20052
:1015C000882319F08AE38093E8009FB7F89482E0BB
:1015D0008093E9008091F2009FBF882321F083E887
:1015E00094E00E949D109FB7F89485E08093E900F5
:1015F0008091F2009FBF8823C1F080912D059091CA
:101600002E05892B91F040E450E0BE016F5F7F4FC3
:1016100085E00E947D0A97FD08C0E0912D05F091BC
:101620002E05BC01CE01019609958091A103882366
:1016300041F08091A10381508093A103811101C0E9
:101640005D9AC05CDF4F0FB6F894DEBF0FBECDBF12
:10165000DF91CF91FF91EF91BF91AF919F918F91CA
:101660007F916F915F914F913F912F910F900FBE9E
:101670000F901F901895EF92FF920F931F93CF93A7
:10168000DF931F92CDB7DEB789838B017A0141E0EA
:1016900050E0BE016F5F7F4F84E00E94E409A70124
:1016A000B80184E40E94E4090F90DF91CF911F916B
:1016B0000F91FF90EF9008951F93CF93DF93EC016C
:1016C00019819881953009F45DC058F59230D1F1B7
:1016D000A8F4913009F04BC2E091BD01F091BE0138
:1016E0002DE1129FB00111246D5F7D4F028CF38DAF
:1016F000E02DCE01DF91CF911F910994933081F1BC
:10170000943009F034C2E091BD01F091BE01ADE129
:101710001A9FB00111246D5F7D4F0488F589E02D7B
:101720002CC09B3009F493C030F49630C9F19A3044
:1017300009F444C01CC29C3009F4C2C0913F09F4B2
:1017400011C115C2E091BD01F091BE013DE1139FB1
:10175000B00111246D5F7D4F0088F189E02D0DC02F
:10176000E091BD01F091BE018DE1189FB0011124FF
:101770006D5F7D4F0288F389E02DCE01DF91CF911F
:101780001F910994E091BD01F091BE01BDE11B9F45
:10179000B00111246D5F7D4F0688F789E02DEDCFF4
:1017A000E091BD01F091BE012DE1129FB001112425
:1017B0006D5F7D4F008CF18DE02DDFCF1F3F09F471
:1017C0001FE79A81913099F4812F0E94F805E12F4B
:1017D000F0E0E955FC4F85818111C9C1E091BD015F
:1017E000F091BE010680F781E02D812F47C0923035
:1017F00029F5C1E08C2F0E945804CF5FCC30D1F77F
:10180000C12FD0E0C955DC4F8D81811109C0E09115
:10181000BD01F091BE010084F185E02D8FE70995AF
:10182000812F0E94F8058D818111A1C1E091BD0138
:10183000F091BE010680F781E02D1FC0933009F0C2
:1018400096C1812FDF91CF911F910C94580481E0B4
:101850001F3FC1F4809311018CE591E0E3E0F2E0D9
:10186000DF019C011D9221503040E1F7E091BD0164
:10187000F091BE010284F385E02D8FE7DF91CF91D7
:101880001F91099480932A051C3008F070C13DE136
:10189000139FF0011124ED5FFD4F10828091110123
:1018A000181710F410931101E091BD01F091BE01E1
:1018B0000284F385E02D812F09951092B70357C15B
:1018C00082E08093B8039091B90394609093B90338
:1018D0009091B90390619093B9031092BA031330B9
:1018E000C1F048F4113089F0123009F040C1809104
:1018F000B903826034C0153079F1B8F0163009F0C0
:1019000036C18091B9038E7F2AC08091B9038D7F43
:1019100026C0E091BD01F091BE010480F581E02D6B
:1019200080E009951092BA0322C1E091BD01F091C7
:10193000BE010480F581E02D81E0099581E080936E
:1019400011018CE591E0E3E0F2E0DF019C011D92E2
:1019500021503040E1F70BC18091B9038160809341
:10196000B90305C18E89813009F0B9C0A981BA8156
:10197000AE31B1053CF0A93037E0B3072CF0A8E058
:10198000B7E002C0AEE1B0E02091C1013091C201E8
:101990004091C3015091C4010E94E52E28E631E038
:1019A00040E050E00E94BB2E20936003309361031F
:1019B0004093620350936303CA01B90122E030E00F
:1019C00040E050E00E94BB2E2093770430937804CF
:1019D0004093790450937A048D89813071F4F8949E
:1019E00080917E0490917F04A0918004B091810445
:1019F000789481E090E00E9465178F81893C08F01F
:101A000088EC8093CB018885893C08F088EC809332
:101A1000D6018985893C08F088EC8093D3018A85BA
:101A2000893C08F088EC8093D1018B85893C08F0D3
:101A300088EC8093D5018C85893C08F088EC8093F4
:101A4000D4018D85893C08F088EC8093D2018E8585
:101A5000893C08F088EC80935F038F85893C08F00F
:101A600088EC8093CC012A893B898091C5019091B3
:101A7000C60128173907A0F437FD0AC08091BF01BD
:101A80009091C00101972817390720F4C90102C0BD
:101A900080E090E09093C8018093C70183E68E8B2D
:101AA000288939898091C7019091C80182179307CD
:101AB00008F050C083E68E8B121613064CF480910A
:101AC000BF019091C0012817390720F4C90102C055
:101AD00081E090E09093C6018093C5013BC08F3FA9
:101AE000C9F58091C9019091CA019A838983809137
:101AF000990490919A04A0919B04B0919C048B83CB
:101B00009C83AD83BE838091CB018F838091D6016E
:101B100088878091D30189878091D1018A878091BC
:101B2000D5018B878091D4018C878091D2018D87DC
:101B300080915F038E878091CC018F878091C50152
:101B40009091C601998B888B8091C7019091C801B3
:101B50009B8B8A8B8EED90E0988F8F8B40E450E0CA
:101B6000BE0182EFDF91CF911F910C943B0BDF916F
:101B7000CF911F910895DC01683810F0685825C096
:101B8000E62FF0E067FF12C0E058F10981E090E035
:101B900001C0880FEA95EAF7809514969C911497F6
:101BA000892314968C93149760E00FC0E655FE4F7E
:101BB0006491662311F167FF08C014968C91149705
:101BC0008D7F14968C9314976F77FD01369686E07F
:101BD000662321F09081961301C0108281503196C6
:101BE0008111F6CFBD016C5F7F4F48E050E082E08D
:101BF0000E943B0B81E090E0089580E090E0089522
:101C0000FC011682178210861186128613861482B2
:101C1000BC016C5F7F4F48E050E082E00C943B0BCE
:101C2000DC01683810F068582DC0E62FF0E067FF3F
:101C300011C0E058F10981E090E001C0880FEA95F9
:101C4000EAF714969C911497892B14968C93149709
:101C500060E018C0E655FE4F6491611109C081E053
:101C600090E013969C938E93129780E090E00895F5
:101C700067FF08C014968C911497826014968C9319
:101C800014976F7716968C911697861751F11796C1
:101C90008C911797861729F118968C9118978617AB
:101CA00001F119968C9119978617D9F01A968C9193
:101CB0001A978617B1F01B968C911B97861789F09F
:101CC000FD01369680E090E02191211105C0FD01D3
:101CD000E80FF91F668305C0019686309105A1F7CC
:101CE000BECFBD016C5F7F4F48E050E082E00E94B4
:101CF0003B0B81E090E00895CF92DF92EF92FF924C
:101D00000F931F93CF93DF936C01EB017B01E40EE4
:101D1000F51E00E010E0CE15DF0561F06991D601F7
:101D2000ED91FC910190F081E02DC6010995080F1D
:101D3000191FF1CFC801DF91CF911F910F91FF9033
:101D4000EF90DF90CF90089583E08093E900809139
:101D5000F200882319F08AE38093E8000895209127
:101D6000730430917404809175049091760428175F
:101D70003907A9F0E0917504F0917604ED5CFB4F12
:101D8000808120917504309176042F5F3F4F2F732F
:101D90003327309376042093750490E008958FEFF5
:101DA0009FEF08952091730430917404809175041D
:101DB000909176042817390749F0E0917504F09165
:101DC0007604ED5CFB4F808190E008958FEF9FEFEC
:101DD000089580917304909174042091750430915A
:101DE0007604821B930B8F7399270895362F90E00A
:101DF000FC01E55CF74F4491FC01E45EF74F249150
:101E0000FC01E350F84F8491882309F44DC044232A
:101E1000C1F150E0FA013197EE30F10590F5E65549
:101E2000FF4F0C940032909180009F7703C09091F7
:101E300080009F7D9093800024C094B59F7702C05E
:101E400094B59F7D94BD1DC0909190009F7707C071
:101E5000909190009F7D03C090919000977F909308
:101E600090000FC09091C0009F7703C09091C00078
:101E70009F7D9093C00005C09091C200977F909382
:101E8000C200E82FF0E0EE0FFF1FE151F84FA591DF
:101E9000B4918FB7F894EC91311103C020952E23A3
:101EA00001C02E2B2C938FBF089585ED8093BC002D
:101EB0008091BC0084FDFCCF1092040408954091F1
:101EC000DE03262F30E0240F311D21323105DCF4F2
:101ED000209104042430C9F4FC0180E090E08617CE
:101EE00058F43091DE032191DC01A454BC4FA30FC0
:101EF000B11D2C930196F3CF8091DE03680F6093A0
:101F0000DE0380E0089581E0089582E00895089559
:101F10008FEF9FEF08958FEF9FEF08958091BB03A0
:101F200090E09195819591090895CF93DF9300D02A
:101F3000CDB7DEB7CB01642F49835A830E945F0F70
:101F40004981842F5A81952F0F900F90DF91CF9167
:101F50000895CF93DF931F92CDB7DEB7698361E019
:101F6000CE0101960E945F0F81E090E00F90DF911B
:101F7000CF9108950895CF93DF93FC01EB01718118
:101F80008281898387819085998788872585368591
:101F9000438154816DE1769FC00111248D5F9D4F77
:101FA000DC011F965C934E931E9755963C932E939F
:101FB000549764E0769FD0011124AD52BE4F1D921C
:101FC0001D921D921C921397838594859D878C8703
:101FD00082858D8381E0DF91CF910895FC0122817C
:101FE000FB012683FC018381FB0187830895FC01AB
:101FF00082819381FB01978B868B0895DC01FB0125
:1020000012968D919C911397978B868B14968D9138
:102010009C911597938F828F16968C911697848F2B
:1020200017968D919C911897938782870895DC016C
:10203000FB0115968D919C911697978B868B139625
:102040008D919C911497938F828F19968C911997EB
:10205000848317968D919C911897918F808F089506
:10206000DC01FB0112968C911297828313968C915E
:102070001397838314968D919C911597938B828BE4
:1020800016968D919C911797918B808B08959DE169
:10209000899FF0011124ED5FFD4F77876687558B8F
:1020A000448B94E0899FF0011124ED52FE4F108281
:1020B00011821282138208950895089510922A05BC
:1020C00024E0829FC0011124FC01ED52FE4F1082DA
:1020D000118212821382089525E0FC01208386E597
:1020E00091E00895089580932A0508950E940D3285
:1020F0000F931F93CF93DF931F92CDB7DEB78C0161
:10210000698380911901882359F041E050E0BE01B4
:102110006F5F7F4F83E00E94E409181619063CF0B8
:1021200081E090E0F8019383828380E090E00F905B
:10213000DF91CF911F910F9108950F931F93CF932C
:10214000DF931F92CDB7DEB7009173041091740432
:102150000F5F1F4F0F7311278091750490917604C4
:1021600008171907F9F041E050E0BE016F5F7F4F9B
:1021700082E00E947D0A019719F4898190E002C0F3
:102180008FEF9FEF8F3F2FEF920761F0E091730485
:10219000F0917404ED5CFB4F808310937404009302
:1021A0007304D2CF0F90DF91CF911F910F910895BB
:1021B000CF93DF9390E0FC01E45EF74F2491FC01A4
:1021C000E350F84F8491882361F190E0880F991FC4
:1021D000FC01EF51F84FC591D491FC01E151F84F4A
:1021E000A591B491611109C09FB7F8948881209599
:1021F00082238883EC912E230BC0623061F49FB759
:10220000F8943881822F809583238883EC912E2B3C
:102210002C939FBF06C08FB7F894E8812E2B28839C
:102220008FBFDF91CF9108951F93CF93DF93182F26
:10223000EB0161E00E94D810209711F460E004C027
:10224000CF3FD10539F461E0812FDF91CF911F910C
:102250000C94F60EE12FF0E0E55CF74FE4914E2F81
:1022600050E0FA013197EE30F10508F062C0E85411
:10227000FF4F0C94003284B5806884BDC7BD5EC03A
:1022800084B5806284BDC8BD59C0809180008068DB
:1022900080938000D0938900C09388004FC08091C4
:1022A0008000806280938000D0938B00C0938A006E
:1022B00045C080919000806880939000D0939900F1
:1022C000C09398003BC08091900080628093900002
:1022D000D0939B00C0939A0031C080919000886099
:1022E00080939000D0939D00C0939C0027C0809164
:1022F000C00080688093C0008091C0008F7B809375
:10230000C000C093CF001AC08091C000806280934B
:10231000C000C093D00012C08091C200886080933A
:10232000C2008091C2008B7F8093C200C093D20014
:1023300005C0C038D1050CF086CF80CFDF91CF919A
:102340001F910895823108F08251E82FF0E0EB529E
:10235000F84FE49180917B00E3FB222720F930E0E5
:1023600095E0220F331F9A95E1F78F7D282B20935C
:102370007B00E770E064E0937C0080917A008064E9
:1023800080937A0080917A0086FDFCCF809178005E
:102390002091790090E0922B08953FB7F8948091B6
:1023A0002F0490913004A0913104B091320426B5ED
:1023B000A89B05C02F3F19F00196A11DB11D3FBF7D
:1023C000BA2FA92F982F8827820F911DA11DB11D0B
:1023D000BC01CD0142E0660F771F881F991F4A9507
:1023E000D1F70895CF92DF92EF92FF92CF93DF93D0
:1023F0006B017C010E94CD11EB01C114D104E104F9
:10240000F10479F00E94CD116C1B7D0B683E734086
:10241000A0F381E0C81AD108E108F108C851DC4FE7
:10242000ECCFDF91CF91FF90EF90DF90CF900895A8
:102430002FB7F89460912B0470912C0480912D0497
:1024400090912E042FBF08951F920F920FB60F92F6
:1024500011242F933F938F939F93AF93BF938091BA
:102460002B0490912C04A0912D04B0912E04309156
:102470002A0423E0230F2D3720F40196A11DB11D5E
:1024800005C026E8230F0296A11DB11D20932A0442
:1024900080932B0490932C04A0932D04B0932E04CE
:1024A00080912F0490913004A0913104B0913204B6
:1024B0000196A11DB11D80932F0490933004A09329
:1024C0003104B0933204BF91AF919F918F913F91AE
:1024D0002F910F900FBE0F901F9018951F920F9283
:1024E0000FB60F9211242F933F934F935F936F93E7
:1024F0007F938F939F93AF93BF93EF93FF938091BD
:10250000B900887F803609F49CC068F5883209F4E8
:102510005BC090F4803109F454C038F4882309F486
:10252000F6C0883009F44DC0F6C0883109F44CC0BB
:10253000803209F45DC0EFC0803409F468C048F40B
:10254000803309F455C0883309F0E5C08093030453
:10255000D8C0803509F44FC0883509F45DC088348F
:1025600009F0D9C0D6C0883909F4C7C0A8F48837A3
:1025700009F467C038F4883609F463C0803709F479
:1025800060C0C9C0883809F4B8C0803909F45FC098
:10259000803809F0C0C05BC0803B09F486C038F4C5
:1025A000803A09F466C0883A09F47FC0B4C0803C20
:1025B00009F4A7C0883C09F4A4C0883B09F48AC088
:1025C000AAC08091290410C090912804809127040A
:1025D000981770F5E091280481E08E0F809328040D
:1025E000F0E0E95FFB4F80818093BB0085EC86C003
:1025F000809303048EC0E091280481E08E0F8093C5
:1026000028048091BB00F0E0E95FFB4F808390914C
:102610002804809127046EC0E091280481E08E0F89
:10262000809328048091BB00F0E0E95FFB4F80833A
:102630008091060481116DC081E08093050484EAD5
:1026400061C083E08093040410920204CFCF809194
:102650000204803208F051C0E091020481E08E0F44
:10266000809302048091BB00F0E0EE51FC4F808328
:10267000BDCF85EC8093BC001092040480910204CD
:10268000803230F4E0910204F0E0EE51FC4F108211
:102690006091020470E0E091E003F091E10382EECA
:1026A00093E009951092020436C084E080930404FC
:1026B0001092DF031092DE03E091DC03F091DD0362
:1026C00009958091DE03811105C081E08093DE03CE
:1026D0001092BC03E091DF0381E08E0F8093DF0353
:1026E000F0E0E454FC4F80818093BB009091DF03C5
:1026F0008091DE03981708F479CF85E88093BC00B9
:102700000AC085EC8093BC001092040404C01092AF
:1027100003040E94550FFF91EF91BF91AF919F91DC
:102720008F917F916F915F914F913F912F910F907A
:102730000FBE0F901F9018954F925F926F927F92ED
:102740008F929F92AF92BF92CF92DF92EF92FF92C1
:10275000CF93DF93CDB7DEB760970FB6F894DEBFA7
:102760000FBECDBF2B013C016091CB0170E080E03A
:1027700090E00E943A302AE037ED43E25CE30E94A9
:10278000EF304B015C0149825A826B827C8277FE7A
:102790000BC088279927DC0184199509A609B70978
:1027A00089839A83AB83BC8369817A818B819C8185
:1027B0000E943A306B017C016091C5017091C601A5
:1027C00080E090E00E9438306D837E838F8398870D
:1027D00026E636E646E65FE30E94EF30A501940167
:1027E0000E94EF3069877A878B879C879B01AC01B9
:1027F000C701B6010E94EA3087FD47C02D813E81A6
:102800004F815885C501B4010E94EF306D877E87E6
:102810008F87988B20E030E040E85FE30E941E2F16
:102820009B01AC01C701B6010E948B2F87FF2DC011
:1028300069857A858B859C850E9402306B017C01BD
:1028400029813A814B815C81261B370B480B590B40
:10285000AEE3B0E00E94DA2E4B015C016D857E850F
:102860008F8598890E9402309B01AC012C193D098B
:102870004E095F09C501B4010E94BB2ECA01B9010E
:102880006F5F7F4F8F4F9F4F1BC02D813E814F81C8
:102890005885C501B4010E94EF3020E030E040E8E7
:1028A0005FE30E941E2F9B01AC01C701B6010E948D
:1028B000EA3087FD03C06FEF70E002C060E070E0B7
:1028C0008DE00E94141180910C0190910D01892BD3
:1028D00009F06FC080918100887F80938100809192
:1028E000810081608093810061E089E00E94D810BE
:1028F00061E08AE00E94D81061E088E00E94D81070
:1029000061E080E00E94D81061E088E00E94F60E4D
:102910009981E92EF12C60E070E077FC0AC08AE032
:102920000E9414118AE891E00197F1F7B70189E05C
:1029300009C089E00E9414118AE891E00197F1F73B
:10294000B7018AE00E94141180910C0190910D0151
:10295000019789F461E089E00E94D81061E08AE083
:102960000E94D81069817A8177FC02C08AE001C098
:1029700089E00E94141180910C0190910D01029741
:10298000C1F461E08AE060960FB6F894DEBF0FBE36
:10299000CDBFDF91CF91FF90EF90DF90CF90BF90B0
:1029A000AF909F908F907F906F905F904F900C941E
:1029B000D81060960FB6F894DEBF0FBECDBFDF9182
:1029C000CF91FF90EF90DF90CF90BF90AF909F900E
:1029D0008F907F906F905F904F9008956091BF01AE
:1029E0007091C00180E090E00E9438309B01AC0102
:1029F00060E07EEF8FEF96E40E94902F08952F9273
:102A00003F924F925F926F927F928F929F92AF927E
:102A1000BF92CF92DF92EF92FF920F931F93CF93CB
:102A2000DF93CDB7DEB729970FB6F894DEBF0FBEA0
:102A3000CDBF998788874B012B831D830C8317019A
:102A4000DF82CE82042F10E08C819D816C01E12C0D
:102A5000F12CE885F985F7FD2BC0C8019695982FD4
:102A6000882797958795BF01681B790B072E000C67
:102A7000880B990B0E943A302B013C01C701B6012B
:102A80000E9438309B01AC01C301B2010E94902F1B
:102A90002B013C01C8019695982F8827979587951B
:102AA0009A838983EB8190E8E99FB00111242AC0C1
:102AB000B8017695762F662777956795E885F9852D
:102AC0006E0F7F1F072E000C880B990B0E943A3067
:102AD0002B013C01C701B6010E9438309B01AC01BB
:102AE000C301B2010E94902F2B013C0160E86003FA
:102AF000C001619F900D11249A8389832B81620309
:102B0000B001112488859985681B790B072E000C6C
:102B1000880B990B0E943A306B017C01B10180E077
:102B200090E00E9438309B01AC01C701B6010E94C1
:102B3000902F6B017C018A149B0408F43FC08E81A6
:102B40009F818A0D9B1D88169906C0F50C811D81F9
:102B50000A0D1B1D8016910690F4B4016A197B09B9
:102B600080E090E00E9438309B01AC01C301B201CB
:102B70000E94EF300E94023089819A811CC0821924
:102B8000930988159905E8F48A189B08EE81FF815E
:102B90008E1A9F0AB401620D731D80E090E00E94BE
:102BA00038309B01AC01C701B6010E94EF300E9492
:102BB000023088859985860F971F05C080E090E0D8
:102BC00002C08885998529960FB6F894DEBF0FBE9E
:102BD000CDBFDF91CF911F910F91FF90EF90DF90CC
:102BE000CF90BF90AF909F908F907F906F905F90AD
:102BF0004F903F902F9008958F929F92AF92BF92E7
:102C0000CF92DF92EF92FF92CF93DF934B015C0163
:102C1000EA010E9419066B017C01DE01A501940105
:102C20000E94E52E0E943A30A70196010E94EF30E3
:102C300020E030E040E051E40E94EF3020E030E05E
:102C400040E251E40E94EF3020E030E040E85BE3F6
:102C50000E94EF300E9402300E943E0690958095BF
:102C6000709561957F4F8F4F9F4FDF91CF91FF9070
:102C7000EF90DF90CF90BF90AF909F908F9008958E
:102C80000F931F930E94181260938B0470938C040F
:102C900080938D0490938E04E0918304F0918404DA
:102CA0000084F185E02D83E894E0099597FF1FC02B
:102CB0000E94181200918B0410918C0420918D04B5
:102CC00030918E04DC01CB01801B910BA20BB30B66
:102CD00000918704109188042091890430918A041E
:102CE00080179107A207B307B8F28FEF9FEF1F91EC
:102CF0000F9108958091820429B1922F9C70892BA5
:102D000090E0AC01559547955595479540938204C1
:102D100040917E0450917F04609180047091810401
:102D2000FC01E55AFE4F8081082E000C990BAA0B7E
:102D3000BB0B840F951FA61FB71F80937E04909333
:102D40007F04A0938004B093810480917D0481115D
:102D500019C021FF17C081E080937D0480937B041C
:102D600080939D048091770490917804A0917904D8
:102D7000B0917A0480937E0490937F04A0938004A2
:102D8000B09381040895E0918304F091840401904C
:102D9000F081E02D682F83E894E00994CF93DF93CE
:102DA0008DE00E94C316EC018AE00E94C3168C0FCE
:102DB0009D1FDF91CF910895009769F0FC0101906C
:102DC0000020E9F73197AF01481B590BBC0183E89C
:102DD00094E00C947C0E80E090E008958F929F9296
:102DE000AF92BF92EF92FF920F931F93CF93DF9317
:102DF000CDB7DEB7A1970FB6F894DEBF0FBECDBF3B
:102E0000162F042F19A2423008F40AE07E0121E2B5
:102E1000E20EF11C802E912CA12CB12C612FA5016A
:102E200094010E94ED2E029F1019112481E0E81AEE
:102E3000F1081A3014F4105D01C0195CF701108319
:102E4000122F732FCA01232B242B252B39F7C701EF
:102E50000E94DC16A1960FB6F894DEBF0FBECDBF60
:102E6000DF91CF911F910F91FF90EF90BF90AF90A6
:102E70009F908F900895CF92DF92EF92FF92CF9321
:102E8000DF9397FF19C06B017C018DE20E94C3168E
:102E9000EC0166277727CB016C197D098E099F0904
:102EA0004AE00E94EE168C0F9D1FDF91CF91FF909C
:102EB000EF90DF90CF9008954AE0DF91CF91FF909F
:102EC000EF90DF90CF900C94EE16CF93DF93BC0180
:102ED000990F880B990B0E943B17EC010E94CE16AC
:102EE0008C0F9D1FDF91CF910895682F70E080E0D7
:102EF00090E04AE00C94EE16FF920F931F93CF934D
:102F0000DF9300D000D0CDB7DEB70E944016FC01A1
:102F100097FD11C08D32910591F0C0970A9778F016
:102F2000E0918304F09184040680F781E02D83E82A
:102F300094E00995EACF60E070E0CB014CC020E05E
:102F400030E0A901F12CE130F105F1F0ED32F105AD
:102F5000C9F0CF01C0970A97B8F4AAE0B0E00E9488
:102F6000DA2E8F01FF0F220B330BDC01CB01800F18
:102F7000911FA21FB31F9C01AD01205331094109CC
:102F8000510902C0FF24F394E0918304F09184047A
:102F90000680F781E02D83E894E029833A834B8310
:102FA0005C8309950E944016FC01C09729813A81F3
:102FB0004B815C810A9738F2E130F10521F2FF2064
:102FC00041F066277727CB01621B730B840B950BAF
:102FD00002C0CA01B9010F900F900F900F90DF91BE
:102FE000CF911F910F91FF900895CF93DF93CDB7AD
:102FF000DEB7C454D1090FB6F894DEBF0FBECDBF03
:10300000789484B5826084BD84B5816084BD85B5C3
:10301000826085BD85B5816085BD80916E008160CF
:1030200080936E0010928100809181008260809375
:103030008100809181008160809381008091800077
:1030400081608093800080919100826080939100E4
:1030500080919100816080939100809190008160C7
:10306000809390008091C10084608093C100809122
:10307000C10082608093C1008091C1008160809313
:10308000C1008091C30081608093C3008091C00023
:1030900082608093C0008091C20081608093C200F2
:1030A00080917A00846080937A0080917A008260B7
:1030B00080937A0080917A00816080937A00809179
:1030C0007A00806880937A001092BC0181E080933E
:1030D000D70080EA8093D80082E189BD09B400FE60
:1030E000FDCF61E070E080E090E00E94F21180E9A5
:1030F0008093D8008CE08093E2001092E0000E9460
:10310000CD116093930370939403809395039093F0
:1031100096031092640310928A031092890310920E
:103120007D0310927E0310927F0310928003109211
:1031300088031092870310928F03109290031092CD
:1031400091031092920342E0BE01615F7F4F80E0E5
:1031500090E00E9425088F8598898E3D910509F49D
:1031600058C18EED90E09E878D8742E0BE01635F7F
:103170007F4F80E090E00E94F60719821A821B823E
:103180001C8244E0BE016F5F7F4F82E090E00E94AE
:10319000F6078DE290E09E878D8742E0BE01635F77
:1031A0007F4F86E090E00E94F60784E6898B41E03D
:1031B000BE016F5E7F4F88E090E00E94F60741E01D
:1031C000BE016F5E7F4F8BE090E00E94F60741E00A
:1031D000BE016F5E7F4F8CE090E00E94F60741E0F9
:1031E000BE016F5E7F4F80E190E00E94F60741E0F4
:1031F000BE016F5E7F4F8DE090E00E94F60782E394
:10320000898B41E0BE016F5E7F4F89E090E00E94B4
:10321000F60741E0BE016F5E7F4F8AE090E00E94BA
:10322000F60741E0BE016F5E7F4F8EE090E00E94A6
:10323000F607198A41E0BE016F5E7F4F8FE090E094
:103240000E94F6071E861D8642E0BE01635F7F4F27
:1032500081E190E00E94F60784EF91E09E878D87E0
:1032600042E0BE01635F7F4F83E190E00E94F6077A
:103270000FEF1FE01E870D8742E0BE01635F7F4FA7
:1032800085E190E00E94F60780E890E09E878D87B8
:1032900042E0BE01635F7F4F87E190E00E94F60746
:1032A00081E0898B41E0BE016F5E7F4F88E190E055
:1032B0000E94F6078CEB91E0A0E0B0E089839A834E
:1032C000AB83BC8344E0BE016F5F7F4F89E190E038
:1032D0000E94F60789E0898B41E0BE016F5E7F4F57
:1032E0008DE190E00E94F607CC24CA94D12CDE86B2
:1032F000CD8642E0BE01635F7F4F8EE190E00E9489
:10330000F607EE24EA94FF24F394FE86ED8642E06D
:10331000BE01635F7F4F80E290E00E94F6078FEF6F
:1033200092E09E878D8742E0BE01635F7F4F82E21D
:1033300090E00E94F607DE86CD8642E0BE01635F24
:103340007F4F84E290E00E94F607FE86ED8642E021
:10335000BE01635F7F4F86E290E00E94F6071E8603
:103360001D8642E0BE01635F7F4F88E290E00E94CD
:10337000F6071E861D8642E0BE01635F7F4F8AE22C
:1033800090E00E94F6071E870D8742E0BE01635F52
:103390007F4F8CE290E00E94F6071E861D8642E079
:1033A000BE01635F7F4F8EE290E00E94F6071E87AA
:1033B0000D8742E0BE01635F7F4F80E390E00E9493
:1033C000F6071E861D8642E0BE01635F7F4F82E3E3
:1033D00090E00E94F6071E870D8742E0BE01635F02
:1033E0007F4F84E390E00E94F6071E861D8642E030
:1033F000BE01635F7F4F86E390E00E94F6071E8761
:103400000D8742E0BE01635F7F4F88E390E00E943A
:10341000F60742E069EC71E086E090E00E94250842
:1034200044E069E974E082E090E00E94250844E00D
:1034300061EC71E089E190E00E94250842E06CE0D7
:1034400071E08AE390E00E94250841E06BEC71E0B6
:1034500088E090E00E94250841E063ED71E089E09A
:1034600090E00E94250841E061ED71E08AE090E083
:103470000E94250841E066ED71E08BE090E00E943B
:10348000250841E065ED71E08CE090E00E942508A0
:1034900041E064ED71E08DE090E00E94250841E09C
:1034A00062ED71E08EE090E00E94250841E06FE55A
:1034B00073E08FE090E00E94250841E06CEC71E041
:1034C00080E190E00E94250841E06CE673E087E12E
:1034D00090E00E94250841E068E773E088E190E011
:1034E0000E94250842E067EC71E081E190E00E94D3
:1034F000250842E065EC71E083E190E00E94250838
:1035000042E065E673E085E190E00E94250841E035
:103510006BE673E08DE190E00E94250842E06EE6E4
:1035200073E08EE190E00E94250842E060E773E0DE
:1035300080E290E00E94250842E062E773E082E2C8
:1035400090E00E94250842E064E773E084E290E0A6
:103550000E94250842E066E773E086E290E00E9460
:10356000250841E06DE673E088E290E00E942508BE
:103570006091C1017091C2018091C3019091C40119
:103580000E943A3020E030E044EB53E40E94902F58
:103590006B017C018091C9019091CA01BC01990F16
:1035A000880B990B0E943A309B01AC01C701B60110
:1035B0000E94EF300E9402306093600370936103B9
:1035C00080936203909363036B017C01F594E7940D
:1035D000D794C794C0927704D0927804E09279048B
:1035E000F0927A0462E080E00E94D81062E081E00C
:1035F0000E94D81062E082E00E94D81010927D04F0
:10360000C0927E04D0927F04E0928004F092810404
:10361000109282044A9B05C080918204816080934D
:1036200082044B9B05C08091820482608093820457
:10363000809169008F7C806180936900EA9A809113
:1036400069008F73806480936900EB9A0AE111E04E
:1036500026E0F22EF00E60E0D8018D918D010E94DF
:10366000D810F012F8CF62E084E00E94D81062E037
:103670008CE00E94D81062E086E00E94D81062E0E0
:1036800087E00E94D81062E088E00E94D81062E0D3
:1036900085E00E94D81080E291E09093BE01809373
:1036A000BD0186ED94E090932C0580932B058CE56D
:1036B0009BE090932E0580932D05279A3F9A409189
:1036C0006B0320E030E080E0642F70E0812C912CCF
:1036D00054018394F90132966B0102C0D594C794CA
:1036E000EA95E2F7F60175016401022E04C0CC0CE4
:1036F000DD1CEE1CFF1C0A94D2F7E0FF02C08C29EF
:1037000002C0C0948C212F5F3F4F2430310511F748
:1037100090E0142F1170880F991FFC01E45CFE4F9C
:1037200040FF06C0608171815B01B694A79402C01E
:10373000A080B180B092C001A092BF01B092C6013A
:10374000A092C5016091C7017091C80180E090E02E
:103750000E9438306B017C01B50180E090E00E944E
:1037600038309B01AC01C701B6010E94902F6093D5
:103770006703709368038093690390936A03111140
:1037800005C020E030E04AEF54E404C020E030E01F
:103790004AE754E4609108017091090180910A019F
:1037A00090910B010E94EF30609308017093090122
:1037B00080930A0190930B01111105C020E030E0C5
:1037C0004AEF54E404C020E030E04AE754E460915A
:1037D00004017091050180910601909107010E94FA
:1037E000EF3060930401709305018093060190937C
:1037F0000701111105C020E030E04AEF54E404C095
:1038000020E030E04AE754E460910001709101014A
:1038100080910201909103010E94EF3060930001BA
:1038200070930101809302019093030113E0479A82
:1038300064E170E080E090E00E94F211479864E15A
:1038400070E080E090E00E94F211115081F760E09A
:1038500070E0CB010E949C138091770490917804D2
:10386000A0917904B0917A04F89480937E049093A7
:103870007F04A0938004B093810478940E94CD11BA
:1038800060939504709396048093970490939804A2
:1038900000919703109198032091990330919A0316
:1038A0006B017C01C01AD10AE20AF30AC0929104AA
:1038B000D0929204E0929304F092940400919303C6
:1038C0001091940320919503309196036B017C0134
:1038D000C01AD10AE20AF30A40EDC41647E0D40642
:1038E000E104F10410F40C94052E6093930370939B
:1038F0009403809395039093960380917B0488238F
:1039000019F1F89480917E0490917F04A091800435
:10391000B09181047894409177045091780460913B
:10392000790470917A04841B950BA60BB70B409118
:10393000990450919A0460919B0470919C04840FA7
:10394000951FA61FB71F16C0F89480917E04909112
:103950007F04A0918004B091810478944091770411
:10396000509178046091790470917A04841B950BCE
:10397000A60BB70B80938F0390939003A0939103B2
:10398000B093920360918F037091900380919103A3
:10399000909192036E8F7F8F88A399A380919E044C
:1039A00090919F04A091A004B091A104CE8CDF8CD3
:1039B000E8A0F9A0C0929E04D0929F04E092A004D7
:1039C000F092A1042091A604222309F44BC0109187
:1039D000CF0444E0149F90011124B90162567B4F3B
:1039E0007B012E8D3F8D48A159A1281B390B4A0B15
:1039F0005B0BCA01B9010E943A30D70119966D9349
:103A00007D938D939C931C97012FAAE0FA2E60E082
:103A100070E0CB01B4E00B9FF0011124E256FB4FA4
:103A200021853285438554850E941F2F002311F084
:103A3000015001C009E0FA94F110ECCF20E030E031
:103A400040E251E40E94902F21E0210F2A3018F427
:103A50002093CF0402C01092CF046CA77DA78EA73D
:103A60009FA70FC081E08093A6041092A204109239
:103A7000A3041092A4041092A5041CA61DA61EA6C1
:103A80001FA62091D0043091D1044091D2045091CE
:103A9000D3048CA59DA5AEA5BFA58093D00490931B
:103AA000D104A093D204B093D3048091D804882386
:103AB00009F444C010912905E4E01E9FC0011124BF
:103AC000BC0169557B4F7B016CA57DA5CD010E9492
:103AD0001E2FD701D2966D937D938D939C93D5978E
:103AE000012FF4E1FF2E60E070E0CB01B4E00B9F0A
:103AF000F0011124E955FB4F22A933A944A955A986
:103B00000E941F2F002311F0015001C003E1FA941D
:103B1000F110ECCF20E030E040EA51E40E94902F19
:103B200021E0210F243118F42093290502C01092BE
:103B300029056CAB7DAB8EAB9FAB0FC081E0809352
:103B4000D8041092D4041092D5041092D604109286
:103B5000D7041CAA1DAA1EAA1FAA80912A05882381
:103B600009F441C08E8D9F8DA8A1B9A1B7FF07C0F0
:103B7000B095A095909581959F4FAF4FBF4F0297FD
:103B8000A105B1050CF4C7C78091780380FFC3C7B6
:103B90000E94EE149B01AC0160E070E080E094E4D0
:103BA0000E94902F6B017C0160915F0370E080E0C8
:103BB00090E00E943A309B01AC01C701B6010E941F
:103BC000EF3020E030E048EC52E40E94902F0E9459
:103BD0000230AB016E8D7F8D88A199A10E94FC15EA
:103BE0002B013C019BC7E7EDF1E0FBA7EAA71B8A8D
:103BF0001A8A412C512C32012A893B892F5F3F4F71
:103C00003B8B2A8B4DE1429F8001439F100D112475
:103C10000D5F1D4FD8018C918370833009F06EC702
:103C20000E94EE146B017C01F80120853185A68984
:103C3000B7890E9406322FEF3FE740E050E00E9434
:103C4000BB2ECA01B9010E943A30A70196010E9419
:103C5000902F0E9402306B017C01D8011A968D9141
:103C60009C911B97059730F4E4E0F0E01B96FC93E1
:103C7000EE931A974DE12A893B89429FF001439FB9
:103C8000F00D1124ED5FFD4FE1818E2F90E0FC01DE
:103C90003197ED30F10508F01BC7EA5AFF4F0C943D
:103CA00000320E94EE146E8B7F8B888F998FADE16E
:103CB0006A897B89A69FC001A79F900D1124FC01F2
:103CC000ED5FFD4F1F0180849184A488B588C68470
:103CD000D784E088F188028913892381428186890B
:103CE0009789AAA5BBA56D917C910E94FF149401B0
:103CF000DC010E9406322FEF3FE740E050E00E94D7
:103D0000BB2ECA01B9010E943A302E893F89488DE5
:103D1000598D0E94902F0E9402300E943E069B0106
:103D2000AC01A091D601B0E00E94DA2E24E630E08A
:103D300040E050E00E94BB2E421A530A640A750A02
:103D4000F101858182FFC4C66485758580E090E0BD
:103D50000E9438302BED3FE049EC50E40E94EF30F8
:103D600020E030E040E058E30E94EF300E945C31F8
:103D70009B01AC01C301B20122962FAF2297259679
:103D80003FAF259723964FAF239724965FAF249795
:103D90000E943A3022962FAD229725963FAD259767
:103DA00023964FAD239724965FAD24970E94EF3062
:103DB0000E9402302B013C018BC60E94EE146E8BD8
:103DC0007F8B888F998F5DE1E52ECA88DB88EC9C1C
:103DD000F001ED9CF00D1124ED5FFD4F2085318544
:103DE0003B8F2A8FC488D588DBA2CAA2E684F784D9
:103DF000FFA2EEA2E088F188F9AAE8AA2289338915
:103E00003EAF2DAF83809280AAA5BBA52D903C909C
:103E1000068517856781A6800A2C000CBB08062E34
:103E2000000C770B6A197B09CB01770FAA0BBB0B30
:103E30006627782F892F9A2F0E943A306B017C01D8
:103E4000B80180E090E00E94383020E030E04AE79E
:103E500054E40E94902F9B01AC01C701B6010E945F
:103E6000902F6B017C01C101B8010E94EC31BC01B3
:103E700080E090E00E94383020E030E04AE754E4EF
:103E80000E94902F9B01AC01C701B6010E94EF3048
:103E90000E940230BA2CAA24C501860F971FAAA03F
:103EA000BBA0CEA0DFA0E8A8F9A80DAD1EAD282DBF
:103EB000492DB1010E94FF142A8D3B8DDC010E9427
:103EC00006322FEF3FE740E050E00E94BB2ECA01D0
:103ED000B9010E943A302E893F89488D598D0E9440
:103EE000902F0E9402300E943E06461A570A680A26
:103EF000790AEEC50E94EE146E8B7F8B888F998FA6
:103F00004DE1E42ECA88DB88EC9CF001ED9CF00DBD
:103F10001124ED5FFD4F208531853B8F2A8F428D27
:103F2000538D5BA34AA3548D5EA382849384A4889B
:103F3000B588C684D784E088F188028913892381F3
:103F40004281AAA5BBA52D903C9086899789B10195
:103F50000E94FF148C01B40180E090E00E94383090
:103F600020E030E04AE754E40E94902F9B01AC012E
:103F700060E070E080E89FE30E94902F6B017C017D
:103F8000C101B4010E94EC31BC0180E090E00E94CC
:103F9000383020E030E04AE754E40E94902F9B0143
:103FA000AC01C701B6010E94EF306B017C01BEA1DC
:103FB0006B2F70E080E090E00E94383020E030E02D
:103FC00040E85BE30E94EF309B01AC01C701B60102
:103FD0000E941F2F2BED3FE049EC50E40E94EF3090
:103FE0000E945C319B01AC01EAA1FBA16F01FF0FB4
:103FF000EE08FF08B801110F880B990B22962FAF1E
:10400000229725963FAF259723964FAF2397249667
:104010005FAF24970E943A3022962FAD22972596C3
:104020003FAD259723964FAD239724965FAD2497F8
:104030000E94EF300E940230CB01770FAA0BBB0B1E
:10404000A7019601280F391F4A1F5B1FAA8DBB8D40
:104050000E94DA2E2FEF3FE740E050E00E94BB2E97
:10406000CA01B9010E943A302E893F89488D598D85
:10407000CEC00E94EE146A8F7B8F8C8F9D8F3DE1A6
:10408000E32ECA88DB88EC9CF001ED9CF00D112436
:10409000ED5FFD4F208531853BA32AA3228D338D13
:1040A000A901330F660B770B4EA35FA368A779A70F
:1040B000548D58AB22843384A488B588C684D784B1
:1040C000E088F1880289138923814281AAA5BBA5D2
:1040D0000D90BC91A02DBF8BAE8B86899789BD01B9
:1040E0000E94FF14BC01990F880B990B0E943A3073
:1040F0006B017C01B10180E090E00E94383020E04B
:1041000030E04AE754E40E94902F9B01AC0160E04C
:1041100070E080E89FE30E94902F4B015C018E8944
:104120009F89B1010E94EC31BC0180E090E00E94C7
:10413000383020E030E04AE754E40E94902F9B01A1
:10414000AC01C501B4010E94EF304B015C01B8A97C
:104150006B2F70E080E090E00E94383020E030E08B
:1041600040E85BE30E94EF309B01AC01C501B40164
:104170000E941F2F2BED3FE049EC50E40E94EF30EE
:104180000E945C314B015C0120E030E0A9010E94FB
:10419000EA3087FF0CC020E030E0A901C501B4017E
:1041A0000E948B2F87FF05C0EFEFEAAF02C0F1E05E
:1041B000FAAF2AAD622F220F770B880B990B0E9462
:1041C0003A309B01AC01C701B6010E94EF300E945A
:1041D0000230CB01770FAA0BBB0B2EA13FA148A544
:1041E00059A5280F391F4A1F5B1FAAA1BBA10E9416
:1041F000DA2E2FEF3FE740E050E00E94BB2ECA01CD
:10420000B9010E943A302A8D3B8D4C8D5D8D0E9404
:10421000902F0E9402309B01AC01A091D501B0E02B
:104220000E94DA2E24E630E040E050E00E94BB2EEF
:10423000420E531E641E751E4BC40E94EE146AA3E8
:104240007BA38CA39DA36DE14A895B89649FF001E8
:10425000659FF00D1124ED5FFD4F808591859FA333
:104260008EA3228D338D6901330FEE08FF08C8AA93
:10427000D9AAEAAAFBAA348DE284F384FF8AEE8AE3
:10428000A488B588C684D784E088F1880289138918
:1042900023814281AAA5BBA50D90BC91A02DBB8F07
:1042A000AA8F86899789BD0125963FAF25970E94E1
:1042B000FF141C01EE89FF89BF0180E090E00E949D
:1042C00038304B015C0125963FAD259760E4630FC4
:1042D00070E080E090E00E94383020E030E040E87C
:1042E0005BE30E94EF30A50194010E94EF300E9431
:1042F00009308A8D9B8D860F971F6E897F890E945A
:10430000EC318C01BC0180E090E00E94383020E06C
:1043100030E04AE754E40E94902F6B017C0120E0DA
:1043200030E0A9010E94EA3087FD3CC020E030E087
:104330004AE754E4C501B4010E94902F6A8F7B8F35
:104340008C8F9D8F20E030E040E05FE30E94EF30F3
:104350009B01AC01C701B6010E948B2F87FF22C0D1
:10436000B101032C000C880B990B0E943A3020E01D
:1043700030E040E850E40E94EF302A8D3B8D4C8DB8
:104380005D8D0E94902FA70196010E94EF300E9440
:1043900002303194219431086101C60ED71ED9AE86
:1043A000C8AE51C020E030E04AE754E4C501B40192
:1043B0000E94902F4B015C0120E030E040E05FE381
:1043C0000E94EF309B01AC01C701B6010E94EA30A8
:1043D00087FD39C0A5019401C701B6010E948B2F4A
:1043E00087FF31C0B101032C000C880B990B0E9490
:1043F0003A3020E030E040E850EC0E94EF30A50178
:1044000094010E94902F6B017C018E899F89969563
:104410008795B801681B790B80E090E00E943830E6
:1044200020E030E04AE754E40E94902F9B01AC0169
:10443000C701B6010E94EF300E9402307101E60E02
:10444000F71EF9AEE8AE28AD39ADC901330FAA0B9E
:10445000BB0B28A939A94AA95BA9280F391F4A1FF4
:104460005B1FAEA1BFA10E94DA2E2FEF3FE740E015
:1044700050E00E94BB2ECA01B9010E943A302AA125
:104480003BA14CA15DA1C3CE0E94EE146A8F7B8F2D
:104490008C8F9D8F6DE14A895B89649FF001659FD8
:1044A000F00D1124ED5FFD4F808591859BA38AA3BC
:1044B000228D338D6901330FEE08FF08CEA2DFA2F3
:1044C000E8A6F9A6348D22843384A488B588C684EE
:1044D000D784E088F1880289138923814281AAA5C3
:1044E000BBA58D909C9086899789B40125963FAF96
:1044F00025970E94FF149F8B8E8BB10180E090E086
:104500000E9438306B017C0125963FAD259760E80D
:10451000630F70E080E090E00E94383020E030E0EF
:1045200040E85BE30E94EF30A70196010E94EF3064
:104530000E940930C401860F971FB1010E94EC311F
:104540008C0182159305E8F5EE89FF89BF01FF0F05
:10455000880B990B0E943A309B01AC010E941F2FDF
:104560004B015C0120E030E04AE754E4C701B601AA
:104570000E94902F9B01AC01C501B4010E94902FB5
:104580006B017C01B80180E090E00E94383020E0AF
:1045900030E04AE754E40E94902F9B01AC01C70130
:1045A000B6010E94EF300E9402302E893F8931957A
:1045B000219531096901C60ED71E2196DFAECEAE18
:1045C00021972196EEACFFAC2197C701FF0CAA0BF7
:1045D000BB0B03CE0E94EE146A8F7B8F8C8F9D8F56
:1045E0004DE12A893B89429FF001439FF00D112440
:1045F000ED5FFD4F608571857BA36AA3228D338DAE
:10460000C901330FAA0BBB0B8EA39FA3A8A7B9A701
:10461000348D22843384A488B588C684D784E08806
:10462000F1880289138923814281AAA5BBA58D90B7
:104630009C9086899789B40125963FAF25970E9463
:10464000FF149F8B8E8BB10180E090E00E94383088
:104650006B017C0125963FAD259760E8630F70E004
:1046600080E090E00E94383020E030E040E85BE3FA
:104670000E94EF30A70196010E94EF300E9409309E
:10468000C401860F971FB1010E94EC318C01821585
:104690009305D0F56E897F89719561957109072E13
:1046A000000C880B990B0E943A309B01AC010E94D0
:1046B0001F2F4B015C0120E030E04AE754E4C701C2
:1046C000B6010E94902F9B01AC01C501B4010E946C
:1046D000902F6B017C01B80180E090E00E9438309F
:1046E00020E030E04AE754E40E94902F9B01AC01A7
:1046F000C701B6010E94EF300E940230EE89FF89A7
:10470000E60FF71FFCAFEBAFCBACDCACC601DD0CAA
:10471000AA0BBB0B62CD4DE12A893B89429FF00178
:10472000439FF00D1124ED5FFD4FA28DB38D80905E
:10473000770490907804A0907904B0907A04A50151
:1047400094010E94E52EDC01CB010FE0B595A79501
:10475000979587950A95D1F7092E000CAA0BBB0BEC
:104760002E8D3F8D48A159A1281B390B4A0B5B0B9D
:104770001216130614061506C4F4A28DB38DA501F6
:1047800094010E94E52EDC01CB011FE0B595A795B1
:10479000979587951A95D1F7092E000CAA0BBB0B9C
:1047A0004E8D5F8D68A179A117C0A28DB38DA50133
:1047B00094010E94E52EAB01BC01AFE075956795B1
:1047C00057954795AA95D1F7052E000C660B770BE8
:1047D0008E8D9F8DA8A1B9A1481B590B6A0B7B0B2D
:1047E0002DE1AA89BB892A9FF0012B9FF00D11248E
:1047F000ED5FFD4F848138E0839FC0011124092EB5
:10480000000CAA0BBB0B84179507A607B7070CF083
:104810005FC1A28DB38DA50194010E94E52EDC013C
:10482000CB01FFE0B595A79597958795FA95D1F7B8
:10483000092E000CAA0BBB0B4E8D5F8D68A179A1D0
:10484000481B590B6A0B7B0B77FD05C0E8EF2E2E3A
:1048500033243A9403C078E0272E312C8DE16A8905
:104860007B89869FF001879FF00D1124ED5FFD4F3E
:1048700094819E8B028D138DA091D401B0E0A7018D
:1048800096010E94DA2E20E436E040E050E00E94DB
:10489000BB2E2A8F3B8F4C8F5D8FCE88C29CB00180
:1048A000C39C700D11246B01770FEE08FF082E8D4D
:1048B0003F8D48A159A1C20ED31EE41EF51ED8019A
:1048C000A50194010E94E52EDC01CB016FE0B595B6
:1048D000A795979587956A95D1F7092E000CAA0B95
:1048E000BB0BA7019601281B390B4A0B5B0BCA01B6
:1048F000B9014A8D5B8D0E94FC15460E571E681E3D
:10490000791EE6C06DE14A895B89649FF001659F6D
:10491000F00D1124ED5FFD4F028D138DA091D30199
:10492000B0E0A70196010E94DA2E24E630E040E0D4
:1049300050E00E94BB2E69017A01B801110F880B6B
:10494000990B0E943A302AE939EC4CEC54E40E946D
:10495000902F9B01AC016CA57DA58EA59FA50E9403
:104960001E2FA6010E94520765C0ADE18A899B896E
:10497000A89FF001A99FF00D1124ED5FFD4F028D5E
:10498000138DA091D201B0E0A70196010E94DA2E0A
:1049900024E630E040E050E00E94BB2E69017A013D
:1049A000B801110F880B990B0E943A3020E03EEFBE
:1049B0004FEF56E40E94902F9B01AC016CA97DA99A
:1049C0008EA99FA90E941E2FA6010E94EA0632C04E
:1049D0004DE12A893B89429FF001439FF00D11244C
:1049E000ED5FFD4F028D138DA091D101B0E0A701C5
:1049F00096010E94DA2E24E630E040E050E00E946A
:104A0000BB2E69017A01B801110F880B990B0E9426
:104A10003A302AE939EC4CEC54E40E94902F9B0187
:104A2000AC016CA57DA58EA59FA50E941E2FA60199
:104A30000E946906092E000CAA0BBB0B480E591EDA
:104A40006A1E7B1E45C00E94EE149B01AC018DE1E5
:104A50006A897B89869FF001879FF00D1124ED5FA5
:104A6000FD4F828D938DBC01990F880B990B229677
:104A70002FAF229725963FAF259723964FAF2397C9
:104A800024965FAF24970E943A3022962FAD22974A
:104A900025963FAD259723964FAD239724965FAD7E
:104AA00024970E94902F0E9402300E943E069B0194
:104AB000AC01A091D501B0E00E94DA2E24E630E0EE
:104AC00040E050E00E94BB2E421A530A640A750A65
:104AD0000E9418120091CD011091CE012091CF01BA
:104AE0003091D001DC01CB01801B910BA20BB30BE9
:104AF000EAA5FBA580839183A283B3832AA53BA566
:104B00002C5F3F4F3BA72AA74A895B894B30510551
:104B100009F072C803C0412C512C32011091780366
:104B200011FF3EC00E94EE149B01AC01E091D30145
:104B300067E471E0E69FC001E79F900D1124BC017E
:104B4000990F880B990B22962FAF229725963FAF8E
:104B5000259723964FAF239724965FAF24970E9403
:104B60003A3022962FAD229725963FAD2597239672
:104B70004FAD239724965FAD24970E94902F0E94FB
:104B80000230AB016CA57DA58EA59FA50E945207A2
:104B9000092E000CAA0BBB0B480E591E6A1E7B1E69
:104BA00012FF3EC00E94EE149B01AC01E091D201C5
:104BB00067E471E0E69FC001E79F900D1124BC01FE
:104BC000990F880B990B22962FAF229725963FAF0E
:104BD000259723964FAF239724965FAF24970E9483
:104BE0003A3022962FAD229725963FAD25972396F2
:104BF0004FAD239724965FAD24970E94902F0E947B
:104C00000230AB016CA97DA98EA99FA90E94EA067A
:104C1000092E000CAA0BBB0B480E591E6A1E7B1EE8
:104C200013FF3EC00E94EE149B01AC01E091D10144
:104C300067E471E0E69FC001E79F900D1124BC017D
:104C4000990F880B990B22962FAF229725963FAF8D
:104C5000259723964FAF239724965FAF24970E9402
:104C60003A3022962FAD229725963FAD2597239671
:104C70004FAD239724965FAD24970E94902F0E94FA
:104C80000230AB016CA57DA58EA59FA50E9469068B
:104C9000092E000CAA0BBB0B480E591E6A1E7B1E68
:104CA000C0907704D0907804E0907904F0907A0472
:104CB00088279927DC018C199D09AE09BF092E8D23
:104CC0003F8D48A159A1281739074A075B0734F0DF
:104CD000C216D306E406F5060CF03FC04E8D5F8D7C
:104CE00068A179A177FD07C04C195D096E097F099C
:104CF0006A017B0108C06E8D7F8D88A199A1C60EC7
:104D0000D71EE81EF91E0E94EE149B01AC0160E064
:104D10007EEF8FEF96E40E94902F4B015C01609133
:104D2000CC0170E080E090E00E943A309B01AC0141
:104D3000C501B4010E94EF3020E030E048EC52E4BD
:104D40000E94902F0E940230AB01C701B6010E9461
:104D5000FC15460E571E681E791EA091CB01B0E0CF
:104D6000A30192010E94DA2E24E630E040E050E0F8
:104D70000E94BB2ECA01B9010E943E066B017C0154
:104D800014FF04C00E943B170E94CE16C0928B03F2
:104D9000D0928C03E0928D03F0928E0360918F038A
:104DA0007091900380919103909192030E943A3008
:104DB0004B015C016091600370916103809162031B
:104DC000909163030E943A309B01AC0160E07FEF59
:104DD0008FE797E40E94902F9B01AC01C501B401BD
:104DE0000E94EF300E9402302B013C01411470E818
:104DF00057066104710434F044244A945FE7552E49
:104E0000612C712C411480E858068FEF68067806F3
:104E100034F4412C40E8542E66246A94762C409257
:104E20008F03509290036092910370929203C70196
:104E3000B6010E949C1382E10E94A2111C01220C67
:104E4000331C220C331C84E10E94A2114C01880CFB
:104E5000991C880C991C85E10E94A2115C01AA0C86
:104E6000BB1CAA0CBB1C86E10E94A2118C01909372
:104E700084038093830387E10E94A2117C019093B5
:104E800082038093810383E10E94A2116C012FEFC2
:104E90003FE0D1010E94063220E030E0A9010E94EB
:104EA000BB2E211590E1390714F02FEF3FE037FFBB
:104EB00002C020E030E030938A03209389032FEF73
:104EC0003FE0D4010E94063220E030E0A9010E94B8
:104ED000BB2E2115A0E13A0714F02FEF3FE037FF7A
:104EE00002C020E030E030938803209387032FEF47
:104EF0003FE0D5010E94063220E030E0A9010E9487
:104F0000BB2E2115B0E13B0714F02FEF3FE037FF38
:104F100002C020E030E03093860320938503D60161
:104F2000AA0FBB1FAA0FBB1F2FEF3FEF0E94063235
:104F300020E030E0A9010E94BB2E21153105E1E0FF
:104F40004E07510524F02FEF3FEF40E050E0DA012B
:104F5000C90157FF03C080E090E0DC0180937D032E
:104F600090937E03A0937F03B0938003D9B082E136
:104F70000E94A2111C0183E10E94A2115C0184E144
:104F80000E94A2114C0185E10E94A211FC018091B6
:104F90006E0390916F030817190780F480917603D0
:104FA00090917703E816F90608F098C08091740391
:104FB00090917503E816F906C0F469C080917003FA
:104FC000909171030817190780F4809176039091EE
:104FD0007703E816F90608F05FC08091740390919A
:104FE0007503E816F90608F45CC04D2D42954F7024
:104FF00081E0482750E060E070E041705527662767
:105000007727A4E0440F551F661F771FAA95D1F795
:10501000209170033091710380917203909173031A
:1050200002171307D0F008171907B8F42091760378
:1050300030917703E216F306C8F52091740330919E
:105040007503E216F30648F4452B462B472B99F5DA
:1050500080E290E0A0E0B0E045C008171907A8F191
:105060008091760390917703E816F90648F58091D0
:10507000740390917503E816F90638F580916D0375
:1050800081FF27C0452B462B472B19F127C082E013
:1050900090E0A0E0B0E026C084E090E0A0E0B0E0C6
:1050A00021C088E090E0A0E0B0E01CC080E190E08A
:1050B000A0E0B0E017C080E091E0A0E0B0E012C056
:1050C00080E490E0A0E0B0E00DC080E090E0DC0182
:1050D00009C080E890E0A0E0B0E004C081E090E08A
:1050E000A0E0B0E06C017D0124E0CC0CDD1CEE1CE6
:1050F000FF1C2A95D1F7C0927903D0927A03E092EF
:105100007B03F0927C03C401880F991F880F991FBD
:10511000AA0CBB1CAA0CBB1C9101220F331F220F2F
:10512000331F6EE36E9FA0016F9F500D1124F0E8B6
:105130005F1A49825A824B835C832D833F702A2DEC
:105140002295207F232B2E8364E0B694A7946A9542
:10515000E1F7AF828887892F8F708987D701C601D1
:1051600074E0B695A795979587957A95D1F78A8734
:10517000D701C601ECE0B695A79597958795EA9576
:10518000D1F78B871C864CE050E0BE016F5F7F4FEC
:1051900084E00E943B0B8091910490919204A09135
:1051A0009304B091940480319742A105B10508F4AD
:1051B0002CC583E894E00E94E90E181619060CF03D
:1051C00014C583E894E00E94AF0EE82F8FE98E0F9C
:1051D0008A3108F4E0528E2F90E0FC01E154F1098D
:1051E000EA31F10508F001C5ED59FF4F0C9400328A
:1051F0006091C9017091CA01072E000C880B990BB0
:105200000E943B1780E20E94C3168091CB010E944E
:10521000751780E20E94C3168091D3010E94751712
:1052200080E20E94C3168091D1010E94751780E22E
:105230000E94C3168091D6010E94751780E20E94D9
:10524000C3168091D5010E94751780E20E94C31693
:105250008091D4010E94751780E20E94C31680914C
:10526000D2010E94751780E20E94C31680915F03ED
:105270000E94751780E20E94C3168091CC010E94A3
:10528000751780E20E94C3166091C7017091C80132
:1052900080E090E04AE00E94EE1680E20E94C31691
:1052A00080916C030E94751780E20E94C316809162
:1052B00078030E94751780E20E94C3166091C501B1
:1052C0007091C60180E090E04AE00E94EE1680E214
:1052D0000E94C3166091C1017091C2018091C30107
:1052E0009091C4010E943B1780E20E94C316609116
:1052F0006B0326C38BE991E00E94DC1676C4809193
:105300009D04082E000C990B6EC4F89480917E04C5
:1053100090917F04A0918004B0918104D3C00E9439
:105320007C17611101C061E060936C035AC40E9454
:105330007C1764307105810591057CF06B017C015F
:10534000613C7742894091056CF090ECC92E97E260
:10535000D92E99E0E92EF12C05C084E0C82ED12C7D
:10536000E12CF12CF89440907E0450907F046090E2
:1053700080047090810478944091990450919A042B
:1053800060919B0470919C044A8B5B8B6C8B7D8B32
:105390006091C9017091CA01072E000C880B990B0E
:1053A0000E943A304B015C0180917704909178041F
:1053B000A0917904B0917A04A3019201281B390BC2
:1053C0004A0B5B0BDA01C9012A893B894C895D894B
:1053D000280F391F4A1F5B1FCA01B9010E943A30CA
:1053E000A50194010E94EF302B013C016091600304
:1053F0007091610380916203909163030E943A303F
:105400009B01AC01C301B2010E94902F2B013C0112
:10541000D701C60112E0880F991FAA1FBB1F1A955A
:10542000D1F78093C1019093C201A093C301B093BF
:10543000C401C701B6010E943A3020E030E044EBDD
:1054400053E40E94902FA50194010E94EF300E9426
:1054500002306093600370936103809362039093C2
:1054600063036B017C01F594E794D794C794C092D1
:105470007704D0927804E0927904F0927A040E9442
:105480003A309B01AC01C301B2010E94EF30A5018B
:1054900094010E94902F0E940230C60ED71EE81E73
:1054A000F91E4A895B896C897D89C41AD50AE60A86
:1054B000F70AF894C0927E04D0927F04E0928004B0
:1054C000F092810478948DC3809177049091780450
:1054D000A0917904B0917A04F89440917E0450919F
:1054E0007F0460918004709181047894841B950BF3
:1054F000A60BB70B8093990490939A04A0939B04F6
:10550000B0939C046EC31092990410929A04109266
:105510009B0410929C0444E069E974E082E090E00E
:10552000D0C20E947C176E3171058105910574F01F
:105530006B017C01693077408105910564F0A8E03A
:10554000CA2EA7E0DA2EE12CF12C05C0FEE1CF2E09
:10555000D12CE12CF12CF89480917E0490917F0461
:10556000A0918004B09181047894209199043091A5
:105570009A0440919B0450919C042A8B3B8B4C8B4A
:105580005D8B00917704109178042091790430911B
:105590007A04801B910BA20BB30B2A893B894C899F
:1055A0005D89280F391F4A1F5B1FCA01B9010E947C
:1055B0003A304B015C016091C9017091CA01072E1C
:1055C000000C880B990B0E943A309B01AC01C5017D
:1055D000B4010E94EF304B015C0160916003709157
:1055E000610380916203909163030E943A309B01B2
:1055F000AC01C501B4010E94902F2B013C01D09257
:10560000CA01C092C9016091C1017091C20180912B
:10561000C3019091C4010E943A3020E030E044EB95
:1056200053E40E94902F4B015C01C701B6010E9418
:105630003A309B01AC01C501B4010E94EF300E94D9
:1056400002306093600370936103809362039093D0
:1056500063034B015C01B594A7949794879480925F
:10566000770490927804A0927904B0927A040E9410
:105670003A309B01AC01C301B2010E94EF302B0113
:105680003C01B601DD0C880B990B0E943A309B015E
:10569000AC01C301B2010E94902F0E940230860E1D
:1056A000971EA81EB91ECA88DB88EC88FD888C1856
:1056B0009D08AE08BF08F89480927E0490927F0403
:1056C000A0928004B0928104FDCE0E947C17262F08
:1056D000603208F02FE16091780380E090E030E0E4
:1056E000F901082E02C0F595E7950A94E2F7C12C5E
:1056F000D12C7601C394082E04C0CC0CDD1CEE1C0A
:10570000FF1C0A94D2F7E0FF02C06C2902C0C094CB
:105710006C2101968530910519F76093780370E04C
:1057200080E090E042E010C10E947C17611524E007
:1057300072078105910524F06FEF73E080E090E03F
:10574000DC01CB01B7FF03C080E090E0DC01909367
:105750000D0180930C0149C283E894E00E94AF0ED2
:10576000E82F8FE98E0F8A3108F4E0528E2F90E0F7
:10577000FC01E154F109EA31F10508F036C2E358C1
:10578000FF4F0C9400320E947C17611534E07307C0
:105790008105910524F06FEF73E080E090E0DC017B
:1057A000CB01B7FF03C080E090E0DC0190936F0372
:1057B00080936E0316C20E947C17611544E0740743
:1057C0008105910524F06FEF73E080E090E0DC014B
:1057D000CB01B7FF03C080E090E0DC019093710340
:1057E00080937003FEC10E947C17611554E0750719
:1057F0008105910524F06FEF73E080E090E0DC011B
:10580000CB01B7FF03C080E090E0DC01909373030D
:1058100080937203E6C10E947C176115A4E07A07A9
:105820008105910524F06FEF73E080E090E0DC01EA
:10583000CB01B7FF03C080E090E0DC0190937503DB
:1058400080937403CEC10E947C176115B4E07B077E
:105850008105910534F16FEF73E080E090E021C0A5
:105860000E947C176F3F71058105910529F024F096
:105870006FEF70E080E090E0DC01CB01B7FF03C088
:1058800080E090E0DC0180936D03ABC10E947C1747
:10589000161617061806190624F461E070E080E079
:1058A00090E0DC01CB01B7FF03C080E090E0DC01B9
:1058B000909377038093760394C160916E03709107
:1058C0006F0380E090E04AE00E94EE1689EB91E0E1
:1058D0000E94DC16609170037091710380E090E08B
:1058E0004AE00E94EE1689EB91E00E94DC1660917E
:1058F00072037091730380E090E04AE00E94EE161C
:1059000089EB91E00E94DC1660917403709175033D
:1059100080E090E04AE00E94EE1689EB91E00E9460
:10592000DC16609176037091770380E090E04AE0A6
:105930000E94EE1689EB91E00E94DC1660916D03E7
:1059400070E080E090E04AE00E94EE160E94CE16E1
:105950004CC1B801110F880B990B0E943B1789EBC2
:1059600091E00E94DC1680918103909182033BC1FB
:1059700080E090E038C142E069EC71E086E090E0C0
:105980000E94F60744E069E974E082E090E00E943A
:10599000F60744E061EC71E089E190E00E94F607CF
:1059A00042E06CE071E08AE390E00E94F60741E09B
:1059B0006BEC71E088E090E00E94F60741E063ED57
:1059C00071E089E090E00E94F60741E061ED71E04E
:1059D0008AE090E00E94F60741E066ED71E08BE01E
:1059E00090E00E94F60741E065ED71E08CE090E008
:1059F0000E94F60741E064ED71E08DE090E00E94C6
:105A0000F60741E062ED71E08EE090E00E94F6075B
:105A100041E06FE573E08FE090E00E94F60741E01F
:105A20006CEC71E080E190E00E94F60741E06CE6EA
:105A300073E087E190E00E94F60741E068E773E0D9
:105A400088E190E00E94F60742E067EC71E081E1B6
:105A500090E00E94F60742E065EC71E083E190E09F
:105A60000E94F60742E065E673E085E190E00E945F
:105A7000F60742E06EE673E08EE190E00E94F607E2
:105A800042E060E773E080E290E00E94F60742E0C7
:105A900062E773E082E290E00E94F60742E064E78A
:105AA00073E084E290E00E94F60742E066E773E06C
:105AB00086E290E00E94F60741E06DE673E088E23E
:105AC00090E00E94F6078DC083E894E00E94AF0E3C
:105AD000E82F8FE98E0F8A3108F4E0528E2F90E084
